:020000040000FA
:04000000CBEF00F052
:100008002582F2AA0AEF00F00CEF00F054EF00F09E
:10001800F2A411EF00F013EF00F054EF00F0130416
:100028001210D8A41AEF00F01CEF00F020EF00F037
:10003800000E136E000E126E124A132A1050125C34
:10004800000E1358D8B02BEF00F02DEF00F030EF72
:1000580000F0898A31EF00F0899A0F50125C000E87
:100068001358D8B03AEF00F03CEF00F03FEF00F043
:10007800898E40EF00F0899E0E50125C000E1358D6
:10008800D8B049EF00F04BEF00F04EEF00F0898850
:100098004FEF00F08998000ED76EB20ED66EF2942C
:1000A800F2A659EF00F05BEF00F0C9EF00F0F2A004
:1000B80060EF00F062EF00F0C9EF00F081B867EF81
:1000C80000F06BEF00F0186A182A6CEF00F0186A5D
:1000D80081BA71EF00F075EF00F0196A192A76EF0E
:1000E80000F0196AD89019341810056E0628D8B48B
:1000F80080EF00F082EF00F0A9EF00F00604D8A42A
:1001080088EF00F08AEF00F097EF00F00550D8A4D0
:1001180090EF00F092EF00F097EF00F00106D8A002
:100128000206A9EF00F00650D8A49DEF00F09FEF5B
:1001380000F0A9EF00F00504D8A4A5EF00F0A7EFA0
:1001480000F0A9EF00F0014A022A05C006F002BE3D
:10015800B7EF00F0025009E11A0E015CD8A0B7EF22
:1001680000F0B9EF00F0BDEF00F0000E026E190EBE
:10017800016E02BEC4EF00F0C2EF00F0C8EF00F05D
:10018800000E026E000E016EF2902592110075EFBE
:1001980001F0000E0F01386F000E396F000E3A6F34
:1001A800700ED312000E926E300E936E080E946E7F
:1001B800000E806E000E816E000E826E000E896E3B
:1001C800000E8A6E000E8B6E8B948B928B90899C9E
:1001D800000E106E000E0F6E000E0E6E000E026EF8
:1001E800000E016E000E056E0668000E046E000E0D
:1001F800036E000E076E000E0A6E000E096E000EEA
:100208000C6E000E0B6E000E0D6E000E086EBCEC30
:1002180001F0DDEC01F0E4EC01F0120001C023F084
:1002280002C024F023C01AF024C01BF0000E1D6E7B
:10023800030E1C6EA9EC01F0610E1A24D96E000E93
:100248001B20DA6EDF50206E23C01AF024C01BF08A
:10025800000E1D6E030E1C6EA9EC01F0600E1A2430
:10026800D96E000E1B20DA6EDF50216E23C01AF003
:1002780024C01BF0000E1D6E030E1C6EA9EC01F0CD
:10028800620E1A24D96E000E1B20DA6EDF50D5ECF0
:1002980001F01200000000FFFFFFFF0000DF200058
:1002A800BF40009F6000808000609F0040BF00202A
:1002B800DF0000FF0000DF2000BF40009F600080DB
:1002C8008000609F0040BF0020DF0000FF2000DFAB
:1002D8004000BF60009F8000809F0060BF0040DF3B
:1002E80000209C0EF66E020EF76E000EF86E00EE01
:1002F80060F010EE4EF00900F5CFEEFFE550E1504A
:10030800FAE100EE01F0170EEE6AE806FDE125902D
:100318002592000EF86E0001CBEF01F082B697EF40
:1003280001F099EF01F0A8EF01F08B748B728B70DC
:10033800897C0B0E1B6E260E1A6E5E0EE82EFED7FB
:100348001A2EFCD71B2EFAD712001A501C02F3CF14
:100358001EF0F4CF1FF01A501D02F3501F261B5039
:100368001C02F3501F261EC01AF01FC01BF01200FB
:10037800D58ED58CD59AD598D596F80ED516000E6B
:10038800D76EB20ED66EF294F28AF1841200CDECDA
:1003980000F092EC01F012EC01F0CDEF01F0CBEFA0
:1003A80000F0226E22C010F020C00FF021C00EF025
:1003B8001200F18EF180F290F2866288628A120051
:0803C800D08EF28EF28C1200BF
:020000040020DA
:08000000FFFFFFFFFFFFFFFF00
:020000040030CA
:0E000000FF28193CFF3581FF0FC00FE00F40B5
:00000001FF
