:020000040000FA
:04000000CBEF00F052
:100008002682F2AA0AEF00F00CEF00F054EF00F09D
:10001800F2A411EF00F013EF00F054EF00F0130416
:100028001210D8A41AEF00F01CEF00F020EF00F037
:10003800000E136E000E126E124A132A1050125C34
:10004800000E1358D8B02BEF00F02DEF00F030EF72
:1000580000F0898A31EF00F0899A0F50125C000E87
:100068001358D8B03AEF00F03CEF00F03FEF00F043
:10007800898E40EF00F0899E0E50125C000E1358D6
:10008800D8B049EF00F04BEF00F04EEF00F0898850
:100098004FEF00F08998000ED76EB20ED66EF2942C
:1000A800F2A659EF00F05BEF00F0C9EF00F0F2A004
:1000B80060EF00F062EF00F0C9EF00F081B867EF81
:1000C80000F06BEF00F0196A192A6CEF00F0196A5A
:1000D80081BA71EF00F075EF00F01A6A1A2A76EF0C
:1000E80000F01A6AD8901A341910056E0628D8B488
:1000F80080EF00F082EF00F0A9EF00F00604D8A42A
:1001080088EF00F08AEF00F097EF00F00550D8A4D0
:1001180090EF00F092EF00F097EF00F00106D8A002
:100128000206A9EF00F00650D8A49DEF00F09FEF5B
:1001380000F0A9EF00F00504D8A4A5EF00F0A7EFA0
:1001480000F0A9EF00F0014A022A05C006F002BE3D
:10015800B7EF00F0025009E11A0E015CD8A0B7EF22
:1001680000F0B9EF00F0BDEF00F0000E026E190EBE
:10017800016E02BEC4EF00F0C2EF00F0C8EF00F05D
:10018800000E026E000E016EF29026921100CCEF66
:1001980001F082B6D2EF00F0D4EF00F024EF01F0C6
:1001A800070E1C6E170E1B6E6A0EE82EFED71B2E4E
:1001B800FCD71C2EFAD700D0162A03EF01F08B8447
:1001C8008B828B80899C24EF01F08B848B828B90AF
:1001D800899C24EF01F08B848B928B90899C24EF6F
:1001E80001F08B948B928B90899C24EF01F08B8487
:1001F8008B828B80898C000E166E24EF01F01650CE
:100208001B6E1C6A1C50000AD8B40DEF01F024EFD5
:1002180001F01B50010AD8B4E3EF00F0030AD8B488
:10022800E9EF00F0010AD8B4EFEF00F0070AD8B4FC
:10023800F5EF00F0010AD8B4FBEF00F024EF01F06D
:100248001200000E0F01386F000E396F000E3A6F62
:10025800700ED312000E926E300E936E080E946ECE
:10026800000E806E000E816E000E826E000E896E8A
:10027800000E8A6E000E8B6E8B848B828B80898C2D
:10028800000E106E000E0F6E000E0E6E000E026E47
:10029800000E016E000E056E0668000E046E000E5C
:1002A800036E000E076E000E0A6E000E096E000E39
:1002B8000C6E000E0B6E000E0D6E000E086EFCEC40
:1002C80001F01DEC02F024EC02F0120001C024F051
:1002D80002C025F024C01BF025C01CF0000E1E6EC5
:1002E800030E1D6EE9EC01F0610E1B24D96E000EA1
:1002F8001C20DA6EDF50216E24C01BF025C01CF0D4
:10030800000E1E6E030E1D6EE9EC01F0600E1B243C
:10031800D96E000E1C20DA6EDF50226E24C01BF04E
:1003280025C01CF0000E1E6E030E1D6EE9EC01F0D8
:10033800620E1B24D96E000E1C20DA6EDF5015ECFD
:1003480002F01200FFFFFFFF0000DF2000BF4000A7
:100358009F6000808000609F0040BF0020DF000099
:10036800FF0000DF2000BF40009F60008080006029
:100378009F0040BF0020DF0000FF2000DF4000BFDB
:0F03880060009F8000809F0060BF0040DF00206A
:100398004C0EF66E030EF76E000EF86E00EE60F06F
:1003A80010EE4BF00900F5CFEEFFE550E150FAE111
:1003B80000EE01F0180EEE6AE806FDE1269026929E
:1003C800000EF86E00010BEF02F01B501D02F3CF78
:1003D8001FF0F4CF20F01B501E02F35020261C50B3
:1003E8001D02F35020261FC01BF020C01CF0120075
:1003F800D58ED58CD59AD598D596F80ED516000EEB
:10040800D76EB20ED66EF294F28AF184120025EC01
:1004180001F0CDEC00F06AEC01F00DEF02F0CBEF4B
:1004280000F0236E23C010F021C00FF022C00EF0A0
:100438001200F18EF180F290F2866288628A1200D0
:08044800D08EF28EF28C12003E
:020000040020DA
:08000000FFFFFFFFFFFFFFFF00
:020000040030CA
:0E000000FF28193CFF3581FF0FC00FE00F40B5
:00000001FF
